:0A0000000C9440000C946D000C9469
:10000A0074000C9400000C9400000C9400000C94F2
:10001A0000000C9400000C9400000C9400000C9456
:10002A0000000C9400000C9400000C9400000C9446
:10003A0000000C9400000C9400000C9400000C9436
:10004A0000000C9400000C9400001027E8036400E0
:10005A000A00010000100001100001000000050064
:10006A0025642F25640080C0040004006600020095
:10007A006A0170000000F894EE27ECBBF1E0FBBFC8
:10008A00EBBFE5BF8DE0A2E0BB27ED938A95E9F7C8
:10009A0080E094E0A0E6ED930197E9F7E2E7F0E06B
:1000AA0085919591009761F0A591B591059015906C
:1000BA00BF01F00105900D920197E1F7FB01F0CF26
:1000CA00EFE5EDBFE4E0EEBFC0E6D1E00C948000BE
:1000DA00EA93FA93EFB7EA93F301319606C0EA93EB
:1000EA00FA93EFB7EA93F30131973F01E991EFBF32
:1000FA00F991E9911895E0E0EABBEBBBE7BBE8BBF5
:10010A00E4BBE5BBE1BBE2BBE3BFE2BFECBFEFBDD3
:10011A00ECE0EEBDE0E0EDBDECBDE7BDE6BDEAE733
:10012A00EBBDE1E1EABDE0E0E9BDE8BDE2BDE5BD68
:10013A00E4BDE3BDE9BFEBB7E06CEBBFE0E0E5BFD0
:10014A00E4BFE0ECEABFE0E0EAB9E0E8E8B9E0E001
:10015A00E0BFE6B9EDB9E6BFA0E10E941903EFEFEF
:10016A00E7BB78942301E1E2E8BBECB5FDB5E131E8
:10017A00AAE7FA0711F5E0E0EA93A0E00E94DA02A2
:10018A00F20131972F01E0E6F1E0FA93EA93EAE609
:10019A00F0E0FA93EA93F2010E94AD030E94BA03D7
:1001AA00F3010E94AD030E94BA0388E00E9475021F
:1001BA002C96A0E6B1E00E940803042C0528D1F48D
:1001CA00C09B0BC0C598C49AA0E2B3E00E949B03EF
:1001DA00C498C098C29AC39A0CC0C39B0AC0C2985A
:1001EA00C19AA0E2B3E00E949B03C198C09AC39847
:1001FA00C59A2301BACFFFCFBA93AA931A930A9347
:10020A00AA81BB8112960E94B203309759F1AA8142
:10021A00BB8114960E94B2038F01309761F00230BD
:10022A00E0E01E0798F0F80131978F01AA81BB819F
:10023A001496ED93FC93AA81BB811296ED91FD91E0
:10024A003196FE93EE933197AC81A083AA81BB814C
:10025A000E94B203FF232AF0ED91FD913196FE939D
:10026A00EE9306C0AA81BB81EFEFFFEFED93FC93FB
:10027A001981088125960895BA93AA9326970E9410
:10028A00BF0310E0AC85BD85E0E0F0E0ED93FC93A0
:10029A00EA89FB893196EA8BFB8B3197E4912E2F01
:1002AA00E03009F415C1E12FE03039F4253211F4B8
:1002BA0011E002C00E9461030AC1E130A9F42532AB
:1002CA0019F40E94610302C112E040E000E02D32FD
:1002DA0011F401E0FCC02B3211F44BE2F8C02032D9
:1002EA0011F440E2F4C002C0E23039F450E013E005
:1002FA00203311F40068EBC003C0E33009F0E7C013
:10030A00203310F02A3308F007C0AAE05A9F502D74
:10031A00E22FE0535E0FDBC0E22FE33649F40E947E
:10032A006803E889F989A481AA930E946E03CEC062
:10033A00E33741F40E9468030E9474030E94480351
:10034A001E2F0AC0E03761F40E9468030E947403FA
:10035A000E9454031E2F086002600F7730E034C0F9
:10036A00E43611F0E93611F4046002C0E53731F4DD
:10037A00E4E5F0E0EE83FF8315E00CC0E83511F404
:10038A00086003C0E83709F0A1C0EEE5F0E0EE83AB
:10039A00FF8314E002FF14C00E9468030E947E03D8
:1003AA00AB85AA233AF4EA85FB850E94A903EA876A
:1003BA00FB874DE2403011F01F5F01C00B7F04C084
:1003CA000E9468030E947E0300FD11C0151778F48D
:1003DA0007FF08C002FF04C00B7F242F115001C081
:1003EA0020E301C020E20E9461035150EFCF312F78
:1003FA0001FF17C03030A1F003FF06C0EE81FF8174
:10040A002591EE83FF8305C0AE81BF812D91AE8316
:10041A00BF830E946103503009F051503150EACF36
:10042A004BC020E3EE81FF810E94B603E887F9877B
:10043A00EE81FF813296EE83FF83E885F985AA85EE
:10044A00BB85AE17BF0750F02F5FA885B985EA852F
:10045A00FB85EA1BFB0BEA87FB87EFCF2A3328F0E1
:10046A0003FF02C0295F01C0295D04FD1AC02133C0
:10047A0020F4A885B985119709F409C0531710F01B
:10048A0000FF01C013C020E207FF0BC020E3006198
:10049A0002FF07C00B7F4A930E946E03503009F097
:1004AA0051500E946103503009F051503150A885D3
:1004BA00B985129708F0B5CF00FF08C0503031F067
:1004CA005150E0E2EA930E946E03F8CF10E0E0CECA
:1004DA00AC85BD850E94B2030E94C6036496089546
:1004EA00FF92F82E26970E94C1030E948603309736
:1004FA0019F4EFEFFFEF23C0DE0116960E94A50361
:10050A008D010E948603EE83FF83E0E0E887E98796
:10051A00DE011A960E94A5030E94B203FA93EA9397
:10052A001A930A93E1E0F1E0FA93EA93DE011A964C
:10053A00A3DE9F01AE81BF81E0E0EC93F9010E9446
:10054A00C8032A96FF900895AA93E881E07111F0F2
:10055A00DB9A01C0DB98E881E07211F0DC9A01C0F5
:10056A00DC98E881E07411F0DD9A01C0DD98E88139
:10057A00E07811F0DE9A01C0DE988DE08A95F1F7F5
:10058A00DA9A8DE08A95F1F7DA988DE08A95F1F793
:10059A0078C0AA93A881D8DFE881E295E883A88188
:1005AA00D3DF85E88A95F1F76CC0AA93E881F0E079
:1005BA00E659FE4FE081A981AE0FEBDF9980888072
:1005CA0022960895A2E00E948D03ACE0E2DFA1E04A
:1005DA000E948D03E0E08E2E9E2E0895AA93A88194
:1005EA00AA3011F09B1448F0E0E0EA938394A82D16
:1005FA00DCDFA881AA3009F444C09394D89AA88170
:10060A00C8DFD8983EC0BA93AA931A93A981BA812F
:10061A00ED91A983BA831E2FE03019F0A12FDEDFF6
:10062A00F5CF188123960895AA93D39AD49AD59A86
:10063A00D69AD29AD09AD19ADA98D898D998B88074
:10064A00E881E058E0936C01E881E054E0936D01A1
:10065A00A4E1B0E00E949B030E9493030E949303CB
:10066A000E949303A0E270DF88EC90E00197F1F713
:10067A00A8E28FDFA4E08DDFA5E88BDFA6E089DFA3
:10068A00A1DF21960895BA93AA93A991B991EE2769
:10069A00FF276D91662311F03196FBCF0895BA9327
:1006AA00AA93AA27BB27E991F9910590002011F096
:1006BA001196FBCFFD0108952A93AD85BE85EF857E
:1006CA00F88909950895E889F9893497E88BF98BAF
:1006DA000895AD85BE85EF85F88909950895A8899D
:1006EA00B98914960E94B203EE83FF83AE81BF815B
:1006FA000895A889B98914960E94B203EA87FB87EC
:10070A000895DE011C960E94A5030E94B203089573
:10071A000E94CE02A3E0B0E00C949B03A0E30E94E7
:10072A00A90288EC90E00197F1F70895109639F044
:10073A0080ED97E00197F1F7A8951197C9F7089509
:10074A000024AF0DB01D0895F195E195F04008958C
:10075A006F2F660F660B762F0895ED91FC91119716
:10076A0008950590F491E02D08957A936A93FA9387
:10077A00EA9308955A934A933A932A931A930A93B7
:10078A0008955D814C813B812A81198108810895F0
:00000001FF
